:100000000C942A000C943F000C943F000C943F0089
:100010000C943F000C943F000C943F000C943F0064
:100020000C943F000C943F000C943F000C943F0054
:100030000C943F000C943F000C943F000C943F0044
:100040000C943F000C943F000C943F000C943F0034
:100050000C943F0011241FBECFE5D8E0DEBFCDBF1A
:1000600010E0A0E6B0E0E6E2F3E002C005900D92F9
:10007000A436B107D9F70E9458010C9491010C9451
:10008000000084B3807E84BB85B38F6185BB0895F7
:10009000EF92FF920F931F93CF93DF9300D000D086
:1000A0000F92CDB7DEB760E083E390E00E94BF001F
:1000B000E82E61E083E390E00E94BF00F82E62E04A
:1000C00083E390E00E94BF00082F63E083E390E0A9
:1000D0000E94BF00182F64E083E390E00E94BF00FD
:1000E000682F9701A80170E080E090E00F900F90DA
:1000F0000F900F900F90DF91CF911F910F91FF9074
:10010000EF900895FC0181E090E09C0102C0220F75
:10011000331F6A95E2F7B9018081413019F4822BCF
:10012000808308956095682360830895FC014130C1
:1001300029F04230D9F0411559F00895808121E02D
:1001400030E001C0220F6A95EAF7822B8083089580
:10015000208181E090E0AC0102C0440F551F6A95F8
:10016000E2F7BA016095622360830895808121E0FF
:1001700030E001C0220F6A95EAF78227E7CFFC0141
:10018000808190E002C0959587956A95E2F781702D
:100190000895CF93C92F613021F0623051F040E0D3
:1001A00001C041E0682F88E390E00E94960040E0A3
:1001B00007C040E0682F88E390E00E94960041E08D
:1001C0006C2F88E390E0CF910C94960040E060E0C3
:1001D00088E390E00E94960040E061E088E390E0D0
:1001E0000E94960040E062E088E390E00E94960062
:1001F00040E063E088E390E00C94960041E060E02A
:1002000087E390E00E94820041E061E087E390E0B4
:100210000E94820041E062E087E390E00E94820059
:1002200041E063E087E390E00E9482000C94E600E6
:10023000CF93DF93C0E6D0E061E0888199810E948E
:10024000C90061E08A819B81DF91CF910C94C90044
:10025000CF93DF93C0E6D0E062E0888199810E946D
:10026000C90062E08A819B81DF91CF910C94C90023
:10027000CF93DF93C0E6D0E060E0888199810E944F
:10028000C90061E08A819B81DF91CF910C94C90004
:10029000CF93DF93C0E6D0E061E0888199810E942E
:1002A000C90060E08A819B81DF91CF910C94C900E5
:1002B000CDB7DEB72A970FB6F894DEBF0FBECDBF1D
:1002C0000E9441000E94FE000E94480029833A8358
:1002D0004B835C836D830E9448002E833F83488755
:1002E00059876A87211109C00E94E60083ED90E3D7
:1002F0000197F1F700C00000EECF311103C00E945A
:100300001801F4CF411103C00E942801EFCF511111
:1003100003C00E943801EACF6111E6CF0E94480174
:06032000E5CFF894FFCFC9
:0403260000010203CD
:00000001FF
