:100000000C942A000C943F000C943F000C943F0089
:100010000C943F000C943F000C943F000C943F0064
:100020000C943F000C943F000C943F000C943F0054
:100030000C943F000C943F000C943F000C943F0044
:100040000C943F000C943F000C943F000C943F0034
:100050000C943F0011241FBECFE5D8E0DEBFCDBF1A
:1000600010E0A0E6B0E0E8EAF3E002C005900D92EF
:10007000A837B107D9F70E9444010C94D2010C941F
:100080000000BB9A8AE683BF08958CBF08951FBC09
:1000900082E08EBD08951DBC1CBC08B605FEFDCFD8
:1000A00088B7806288BF86B597B5089580E487B920
:1000B00083E886B9089597B1987F8770982B97B990
:1000C000369A3699FECF84B195B108958FEF84BBEF
:1000D000889A899808958BE081BD0895A895089520
:1000E00095B39F70282F207F922B95BBA898A99A33
:1000F00092E09A95F1F700C0A998EFE8F1E0319706
:10010000F1F700C0000095B38295807F9F70892B26
:1001100085BBA99AF2E0FA95F1F700C0A9988FE99A
:100120009FE00197F1F700C00000089595B39F701C
:10013000282F207F922B95BBA89AA99A92E09A9596
:10014000F1F700C0A99895B38295807F9F70892BA5
:1001500085BBA99A82E08A95F1F700C0A9988FE93A
:100160009FE00197F1F700C0000008958FEF84BB76
:100170008FE39CE90197F1F700C0000082E00E9444
:10018000700088E20E9470008CE00E94700086E09F
:100190000E94700081E00C947000CF93DF93EC011B
:1001A0008991811103C0DF91CF9108950E9496003B
:1001B000F7CF81E00E9470008FE99FE00197F1F78F
:1001C00000C0000008951F93CF93DF93CDB7DEB733
:1001D0002A970FB6F894DEBF0FBECDBF9C0110E08A
:1001E000EAE0F0E0892B61F480E32A960FB6F894F8
:1001F000DEBF0FBECDBFDF91CF911F910C94960053
:10020000C901BF010E948D01DE011196A10FB11D30
:100210001F5F805D8C93C9019B010A9788F71111BC
:100220000AC02A960FB6F894DEBF0FBECDBFDF918D
:10023000CF911F9108951150FE013196E10FF11DEC
:1002400080810E949600EBCF889A899808959098B3
:1002500025E02A95F1F70000909A8AE18A95F1F756
:1002600000C09098819BFECF80E090E0819906C00D
:100270006AE370E00E948D01CB010895019622E0AF
:100280002A95F1F700C0F2CF0E9466000E94560046
:100290000E9441000E9447000E94B6000E94B600E2
:1002A0000E94D90080E690E00E94CD000E942401C7
:1002B0000E946B00CC24CA9483E0D82EE12CF12C50
:1002C00080E00E945B009C01AFEFB0E00E94C301A0
:1002D000A70196010E94A101822F0E9445000E9461
:1002E0002701D82FC92F0E94D9008DE690E00E94E7
:1002F000CD008D2F9C2F0E94E30083E790E00E94A9
:10030000CD000E946E002FEF80E792E021508040E8
:100310009040E1F700C00000D3CFAA1BBB1B51E106
:1003200007C0AA1FBB1FA617B70710F0A61BB70B65
:10033000881F991F5A95A9F780959095BC01CD010A
:100340000895A1E21A2EAA1BBB1BFD010DC0AA1F16
:10035000BB1FEE1FFF1FA217B307E407F50720F02E
:10036000A21BB30BE40BF50B661F771F881F991FA9
:100370001A9469F760957095809590959B01AC01F2
:10038000BD01CF010895A29FB001B39FC001A39FFB
:10039000700D811D1124911DB29F700D811D1124BE
:0803A000911D0895F894FFCFB0
:1003A80053797374656D205265616479004469738B
:0803B800743A0020636D00009F
:00000001FF
