:100000000C942A000C949F010C94F1010C9447006D
:100010000C9447000C9447000C9447000C94470044
:100020000C9447000C9447000C9447000C94470034
:100030000C9447000C9447000C9447000C94470024
:100040000C9447000C9447000C9447000C94470014
:100050000C94470011241FBECFE5D8E0DEBFCDBF12
:1000600010E0A0E6B0E0E6E7F7E002C005900D92F0
:10007000A637B107D9F720E0A6E7B0E001C01D928E
:10008000AB37B207E1F70E9442030C94B9030C941A
:1000900000008091760091E089278093760040915E
:1000A000760050E060E070E082E090E00C94C700E1
:1000B00010926000809160000E942A0260E080E05F
:1000C0000E94D4028BE690E00E94BE026091600024
:1000D00070E080E090E00C94DC029A01823091059F
:1000E00071F190F4892BB9F481E090E0AC0102C089
:1000F000440F551F6A95E2F7BA018AB321303105E2
:1001000031F4842B8ABB0895039769F108956095B3
:1001100068236ABB089581E090E0AC0102C0440FFF
:10012000551F6A95E2F7BA0187B32130310519F4FA
:10013000842B87BB08956095682367BB089581E091
:1001400090E0AC0102C0440F551F6A95E2F7BA0176
:1001500084B32130310519F4842B84BB0895609554
:10016000682364BB089581E090E0AC0102C0440FB5
:10017000551F6A95E2F7BA0181B32130310519F4B0
:10018000842B81BB08956095682361BB08959A0113
:100190008230910571F190F4892BB9F481E090E0FF
:1001A000AC0102C0440F551F6A95E2F7BA018BB348
:1001B0002130310531F4842B8BBB0895039769F10D
:1001C0000895609568236BBB089581E090E0AC01D1
:1001D00002C0440F551F6A95E2F7BA0188B3213077
:1001E000310519F4842B88BB08956095682368BB9A
:1001F000089581E090E0AC0102C0440F551F6A955C
:10020000E2F7BA0185B32130310519F4842B85BB9F
:1002100008956095682365BB089581E090E0AC0186
:1002200002C0440F551F6A95E2F7BA0182B321302C
:10023000310519F4842B82BB08956095682362BB55
:10024000089582309105A1F060F4892B79F489B387
:1002500090E002C0959587956A95E2F7817099279D
:100260000895039739F080E090E0089586B3F0CFC9
:1002700083B3EECF80B3ECCF82309105B1F050F470
:10028000892B59F481E06130710509F080E0819596
:100290008ABB0895039789F0089581E06130710564
:1002A00009F080E0819587BB089581E06130710598
:1002B00009F080E0819584BB089581E0613071058B
:1002C00009F080E0819581BB08958230910551F05D
:1002D00020F4892B29F46BBB0895039729F0089526
:1002E00068BB089565BB089562BB0895823091058F
:1002F00081F048F4892B51F485B78E7F85BF85B78F
:100300008D7F85BF0895039751F0089585B781606B
:10031000F5CF85B78E7F85BF85B78260F2CF85B771
:100320008160F9CF8BB780648BBF08958BB78F7BCB
:100330008BBF0895909378008093770008951F9263
:100340000F920FB60F9211242F933F934F935F9309
:100350006F937F938F939F93AF93BF93EF93FF938D
:10036000E0917700F0917800309709F00995FF91BE
:10037000EF91BF91AF919F918F917F916F915F911D
:100380004F913F912F910F900FBE0F901F90189596
:100390008230910581F048F4892B51F485B78B7F29
:1003A00085BF85B7877F85BF0895039751F008956E
:1003B00085B78460F5CF85B78B7F85BF85B78860AB
:1003C000F2CF85B78460F9CF8BB780688BBF089573
:1003D0008BB78F778BBF089590937A0080937900C5
:1003E00008951F920F920FB60F9211242F933F93EF
:1003F0004F935F936F937F938F939F93AF93BF932D
:10040000EF93FF93E0917900F0917A00309709F033
:100410000995FF91EF91BF91AF919F918F917F913E
:100420006F915F914F913F912F910F900FBE0F9061
:100430001F90189561E070E081E090E00E943C011F
:1004400060E081E090E00C946501682F81E090E02D
:100450000C9465018A3038F4E82FF0E0EF59FF4F33
:1004600080810C94250280E4FCCF41E050E062E002
:1004700070E083E090E00E94C70082E08A95F1F787
:1004800000C040E050E062E070E083E090E00E9455
:10049000C70087EC90E00197F1F700C000000895D5
:1004A000CF93C82F40E050E060E070E083E090E040
:1004B0000E94C70040E050E061E070E083E090E01F
:1004C0000E94C7006C2F80E090E00E946501CF91F0
:1004D0000C9435022FE788E391E021508040904052
:1004E000E1F700C0000041E050E060E070E083E030
:1004F00090E00E946D0041E050E061E070E083E038
:1005000090E00E946D0041E050E062E070E083E026
:1005100090E00E946D0061E070E080E090E00E9459
:100520003C0188E30E9450028CE00E94500286E069
:100530000E94500281E00E9450028FE99FE00197E3
:10054000F1F700C000000895CF93C82F41E050E0BC
:1005500060E070E083E090E00E94C70040E050E07F
:1005600061E070E083E090E00E94C7006C2F80E0C3
:1005700090E00E946501CF910C943502CF93DF93F8
:10058000EC018991811103C0DF91CF9108950E9400
:10059000A402F7CF81E00E9450028FE99FE001970B
:1005A000F1F700C000000895811104C06058862F43
:1005B0000C9450026054FBCF8F929F92AF92BF92E7
:1005C000CF92DF92EF92FF921F93CF93DF93CDB73D
:1005D000DEB72B970FB6F894DEBF0FBECDBF6B0111
:1005E0007C0110E08AE0882E912CA12CB12CC11442
:1005F000D104E104F104A1F480E32B960FB6F89442
:10060000DEBF0FBECDBFDF91CF911F91FF90EF9066
:10061000DF90CF90BF90AF909F908F900C94A402EA
:10062000C701B601A50194010E949703FE0131960E
:10063000E10FF11D1F5F605D6083D701C601690195
:100640007A010A97A105B10558F7111112C02B962E
:100650000FB6F894DEBF0FBECDBFDF91CF911F91D3
:10066000FF90EF90DF90CF90BF90AF909F908F90D2
:1006700008951150FE013196E10FF11D80810E9415
:10068000A402E3CF0E941A020E946A0241E050E0F5
:1006900060E070E082E090E00E946D0082E090E017
:1006A0000E94760189E490E00E949A010E949201E2
:1006B00082E090E00E94C80188E590E00E94EC0191
:1006C0000E94E40178948BE690E00E94BE02609163
:1006D000600070E080E090E00E94DC02C1E02FEF5B
:1006E00089E698E1215080409040E1F700C0000089
:1006F000809160008F5F80936000809160008A30FD
:1007000010F0C0936000809160000E942A0260E0B7
:1007100080E00E94D4028BE690E00E94BE026091CD
:10072000600070E080E090E00E94DC02D8CFA1E29F
:100730001A2EAA1BBB1BFD010DC0AA1FBB1FEE1F5B
:10074000FF1FA217B307E407F50720F0A21BB30BA6
:10075000E40BF50B661F771F881F991F1A9469F722
:1007600060957095809590959B01AC01BD01CF017E
:060770000895F894FFCF8C
:10077600013F065B4F666D7D077F6F436F756E7435
:0607860065723A2000003C
:00000001FF
