:100000000C942A000C943F000C943F000C943F0089
:100010000C943F000C943F000C943F000C943F0064
:100020000C943F000C943F000C943F000C943F0054
:100030000C943F000C943F000C943F000C943F0044
:100040000C943F000C943F000C943F000C943F0034
:100050000C943F0011241FBECFE5D8E0DEBFCDBF1A
:1000600010E0A0E6B0E0E0E5F6E002C005900D92F9
:10007000A23AB107D9F70E943D020C9426030C94D2
:100080000000FC019B014D32A1F054F44A32A9F06A
:10009000280F391F4B3211F020E030E0C9010895DC
:1000A0004F32D1F761157105C9F30E94BE029B0161
:1000B000F5CF861B970B9C01F1CF6E9F90016F9F30
:1000C000300D7E9F300D1124E9CF8B3271F08D32CF
:1000D00061F08A3269F021E030E08F3211F020E0E7
:1000E00030E0C901880F991F089581E090E00895DC
:1000F00082E090E008952F923F924F925F926F922C
:100100007F928F929F92AF92BF92CF92DF92EF92A7
:10011000FF920F931F93CF93DF93CDB7DEB7ED9789
:100120000FB6F894DEBF0FBECDBF3C01C12CD12C61
:100130000FEF1FEFEE24EA94FE2C4AE0242EF30189
:10014000EC0DFD1D3080311024C0EE0CFF1CCE01E3
:100150000196E80EF91EF7018081918117FF84C096
:10016000ED960FB6F894DEBF0FBECDBFDF91CF91F5
:100170001F910F91FF90EF90DF90CF90BF90AF90C5
:100180009F908F907F906F905F904F903F902F90B7
:100190000895632D032C000C770BCB01C0970A97B1
:1001A00030F5812C912C0BC0289C9001299C300D9E
:1001B00011244C01820E931E2FEFC21AD20AF301B2
:1001C000EC0DFD1D8081082E000C990BC0978A3024
:1001D000910550F38FEFE81AF80AF701EE0FFF1FB1
:1001E000CE010196E80FF91F91828082A8CF80E7A7
:1001F00090E00E94E602EFEFCE1ADE0A892B09F4A6
:100200009ECF5701AA0CBB1CCE010196A80EB91EA9
:1002100017FD10C0FE01B996E00FF11F20812DAF30
:10022000822F0E9465002C01832D0E9465004816D4
:10023000590644F40F5F1F4FFE01B996E00FF11FFE
:1002400030827DCF91E0E91AF108F501608171817A
:10025000015011094DAD929182915F010E944100C0
:10026000F50191838083D4CFFE01B996E00FF11F91
:100270004081BC01F701929182917F010E9441006F
:10028000F701918380830150110965CF95B39F7069
:10029000282F207F922B95BBA898AA9AEFECF7E025
:1002A0003197F1F700C00000AA98EFE9FFE031971D
:1002B000F1F700C0000095B38295807F9F70892B75
:1002C00085BBAA9A8FEC97E00197F1F700C0000078
:1002D000AA98EFE9FFE03197F1F700C00000089518
:1002E00095B39F70282F207F922B95BBA89AAA9A2E
:1002F000EFECF7E03197F1F700C00000AA98EFE9C2
:10030000FFE03197F1F700C0000095B38295807F40
:100310009F70892B85BBAA9A8FEC97E00197F1F724
:1003200000C00000AA98EFE9FFE03197F1F700C0A4
:100330000000089584B38FEF84BB8FE39CE901979D
:10034000F1F700C0000082E00E94460188E20E94AE
:1003500046018CE00E94460186E00E94460181E051
:100360000E9446018FE99FE00197F1F700C000006D
:100370000895CF93DF93EC018991811103C0DF9140
:10038000CF9108950E947001F7CF81E00E9446014D
:100390008FE99FE00197F1F700C000000895CF9327
:1003A000DF9300D0CDB7DEB720E830EC3A83298365
:1003B000FE01E80FF11D8181860F0F900F90DF91F4
:1003C000CF910C944601CF93DF93CDB7DEB7609702
:1003D0000FB6F894DEBF0FBECDBF80EF81BB8FEFAD
:1003E00082BB80E1E0E6F0E0DE01119601900D9223
:1003F0008A95E1F761E070E0E0E0F0E09F012C5FBA
:100400003F4FCB0102C0880F991F2A95E2F79C014C
:10041000209522BB20E030E040B350E0022E02C025
:10042000559547950A94E2F740FF0AC02F5F3F4F6A
:100430002430310589F73196E430F105F9F6DCCF47
:100440009FEF41EE84E0915040408040E1F700C0D2
:100450000000EE0FFF1FEE0FFF1FCE010196E80F09
:10046000F91FE20FF31F808160960FB6F894DEBF8C
:100470000FBECDBFDF91CF910895CDB7DEB7AB975B
:100480000FB6F894DEBF0FBECDBF0E949A018FEF6A
:1004900082BB0E94C50163E080E00E94CF0185E736
:1004A00090E00E94B90161E081E00E94CF018EE7F7
:1004B00090E00E94B9012FEF83ED90E3215080403E
:1004C0009040E1F700C000000E94C501FE01319696
:1004D0007F0181E211928A95E9F78BE990E00E9411
:1004E000B90100E00E94E301182F80ED810F8A30EE
:1004F00050F0612F012E000C770B80E790E00E94F6
:10050000E602892B91F00F3168F7DD24D394D00EE9
:10051000F701E00FF11D1083F701ED0DF11D1082C1
:10052000812F0E9470010D2DDDCF1D33D9F4C7013D
:100530000E947B004AE0BE016E5D7F4F0E94F10287
:100540000E94C50160E080E00E94CF01C7010E94C7
:10055000B9018DE30E947001CE0182960E94B9011B
:100560001982BFCF133409F0BDCF0E94C50160E0EE
:1005700080E00E94CF018BE990E0F0CF97FB072E3F
:1005800016F4009407D077FD09D00E94D20207FC30
:1005900005D03EF4909581959F4F08957095619593
:1005A0007F4F0895AA1BBB1B51E107C0AA1FBB1FA9
:1005B000A617B70710F0A61BB70B881F991F5A95EF
:1005C000A9F780959095BC01CD010895FC0181911A
:1005D000861721F08823D9F7992708953197CF01FD
:1005E0000895BB274A3031F4992322F4BDE2909557
:1005F00081959F4F0C94FD02BB27FB015527AA272D
:10060000880F991FAA1FA41710F0A41B839550519F
:10061000B9F7A05DAA3308F0A95DA193009779F717
:10062000B111B1931192CB010C941603DC01FC01C2
:10063000672F71917723E1F7329704C07C916D9316
:1006400070836291AE17BF07C8F30895F894FFCF87
:100650003738392F3435362A3132332D43303D2B5C
:100660002B2D2A2F0053617261205E5F5E002020D7
:100670002020202D2D2D2D2D2D43616C63756C6157
:1006800074696F6E2D2D2D2D2D2D0043616C633AF5
:02069000200048
:00000001FF
