:100000000C942A000C943F000C943F000C943F0089
:100010000C943F000C943F000C943F000C943F0064
:100020000C943F000C943F000C943F000C943F0054
:100030000C943F000C943F000C943F000C943F0044
:100040000C943F000C943F000C943F000C943F0034
:100050000C943F0011241FBECFE5D8E0DEBFCDBF1A
:1000600010E0A0E6B0E0EEE1F9E002C005900D92EC
:10007000A037B107D9F70E94DF000C948D040C94CF
:1000800000008FEF84BB15BA0895893008F088E02E
:1000900021E030E0A90102C0440F551F8A95E2F724
:1000A000CA01815085BB089580E487B986E886B986
:1000B000089597B18F70907F892B87B9369A3699BA
:1000C000FECF84B195B1089592B39F70282F207F01
:1000D000922B92BB9098919A92E09A95F1F700C07A
:1000E0009198EFE8F1E03197F1F700C0000092B38A
:1000F0008295807F9F70892B82BB919AF2E0FA955E
:10010000F1F700C091988FE99FE00197F1F700C0E7
:100110000000089592B39F70282F207F922B92BBEE
:10012000909A919A92E09A95F1F700C0919892B3C3
:100130008295807F9F70892B82BB919A82E08A95FD
:10014000F1F700C091988FE99FE00197F1F700C0A7
:10015000000008958FEF81BB8FE39CE90197F1F7D1
:1001600000C0000082E00E94640088E20E946400F7
:100170008CE00E94640086E00E94640081E00C94A0
:100180006400CF93DF93EC018991811103C0DF916B
:10019000CF9108950E948A00F7CF81E00E94640009
:1001A0008FE99FE00197F1F700C0000008958111E9
:1001B00004C080E8860F0C94640080ECFBCFCDB7C0
:1001C000DEB760970FB6F894DEBF0FBECDBF0E94BA
:1001D00041000E9454000E94AA0084E6A82EB12C7F
:1001E00044244A9493E0592E612C712C20E6E22E8F
:1001F00020E0F22E08E610E080E00E9459004C0159
:100200009C01A4E6B0E00E948001A30192010E943B
:100210005E01C22E38E0239FC0011124B5010E9467
:100220004A01862F0E9445000E94CD0060E080E0D8
:100230000E94D7009F928F92FF92EF92CE0101967B
:100240009F938F930E94A301CE0101960E94C1004B
:1002500060E081E00E94D7001F92CF921F930F931E
:100260009E012F5F3F4F3F932F930E94A301CE012A
:1002700001960E94C1003FEF81EE94E03150804032
:100280009040E1F700C000000FB6F894DEBF0FBE4B
:10029000CDBFB2CF97FB072E16F4009407D077FDA1
:1002A00009D00E948F0107FC05D03EF490958195FE
:1002B0009F4F0895709561957F4F0895A1E21A2E82
:1002C000AA1BBB1BFD010DC0AA1FBB1FEE1FFF1FFA
:1002D000A217B307E407F50720F0A21BB30BE40B4A
:1002E000F50B661F771F881F991F1A9469F7609591
:1002F0007095809590959B01AC01BD01CF0108954B
:10030000A29FB001B39FC001A39F700D811D112456
:10031000911DB29F700D811D1124911D0895AA1B7E
:10032000BB1B51E107C0AA1FBB1FA617B70710F0E0
:10033000A61BB70B881F991F5A95A9F78095909512
:10034000BC01CD010895AEE0B0E0E9EAF1E00C9423
:1003500064040D891E8986E08C831A8309838FEFDC
:100360009FE79E838D83AE01475E5F4F6F89788DD7
:10037000CE0101960E94C6012F813885020F131FFE
:10038000F80110822E96E4E00C948004ABE0B0E01B
:10039000ECECF1E00C9457046C017B018A01FC0148
:1003A00017821682838181FFDAC19AE0492EF60115
:1003B0002381F70123FD859123FF81917F01811521
:1003C00009F41FC1853239F423FD959123FF9191E2
:1003D0007F01953229F4B60190E00E94C803E7CF6F
:1003E00030E0612C512C712CF0E27F1640F59B32ED
:1003F000D9F058F49032D1F09332F1F09E3299F561
:1004000076FCFFC0689476F806C09D3291F0903378
:10041000C1F4689470F8F70123FD959123FF919141
:100420007F019111E1CF29C0689471F8689472F846
:10043000F2CF689473F8EFCF689474F8ECCF77FC40
:100440001CC080ED890F8A30C8F676FE05C0649C1A
:10045000800D1124682EDFCF549C800D1124582E5E
:10046000689475F8D8CF9C3619F4689477F8D3CF90
:100470009C3409F44BC0983671F2892F8F7D8554D6
:10048000833008F445C0933609F466C0933709F405
:1004900069C0933509F475C0943619F0993609F09E
:1004A0009FC0F80177FE95C0619171918191919102
:1004B0008F01272D2F76722E97FF09C0909580957A
:1004C000709561957F4F8F4F9F4F689477F82AE022
:1004D00030E0AE014F5F5F4F5A010E94F8038A1966
:1004E000A82E76FEC5C0872D8E7FA61408F0BFC04B
:1004F00074FE12C172FC06C1F72DFE7E7F2EB62C53
:10050000872D8678811509F4C0C001C131E083CF01
:100510003115F9F0085F1F4F8FE389838824839496
:10052000912CAE014F5F5F4F5A01E89477F873FC4E
:1005300003C085149104B0F181149104D1F55114D4
:1005400009F435CFB60180E290E00E94C8035A94C6
:10055000F6CF0C5F1F4FE0CFF801808189830E5FDB
:100560001F4FDCCFF801A190B1908F01662D70E094
:1005700076FC02C06FEF7FEFC5010E94BD034C0106
:10058000D4CFF801A190B1908F01662D70E076FC78
:1005900002C06FEF7FEFC5010E94B2034C01689467
:1005A00077F8C5CFB60180E290E00E94C8035A9464
:1005B000C0CFF50177FC859177FE81915F01B6018F
:1005C00090E00E94C80351105A94F1E08F1A9108EC
:1005D000B3CF61917191072E000C880B990B68CFF6
:1005E000372CE89434F82AE030E0953739F1572D6C
:1005F000597F352E903799F058F49835A9F09F36E9
:10060000D9F0F601868197812B96E1E10C94730471
:100610009837B9F774FC05C020E130E00FC068944A
:1006200034F8689432F8F8CF74FE03C0872D8660E2
:10063000382E20E132E002C028E030E0F80137FE39
:1006400011C061917191819191918F01FE0131965B
:100650005F01AF010E94F8038A19A82E732CE89459
:1006600077F83FCF6191719180E090E0EECF782EE6
:10067000BA2C74FE45CFFE01EA0DF11D8081803356
:1006800009F043C0272D297E722E73FC0EC070FE28
:100690004FC06A2CB51418F4650C6B18B52C852D59
:1006A0008B195B1408F480E0B80EB51408F042C052
:1006B0005B1874FE41C0B60180E390E00E94C8035D
:1006C00072FE09C088E590E071FC02C088E790E006
:1006D000B6010E94C803A614D8F1AA94B12C4FEF1A
:1006E000A41AB40ACE0101963C01A80EB91EF50168
:1006F00082915F01B60190E00E94C8036A147B04F6
:10070000B1F71DCFB62C782EB6CF72FC02C0B394D1
:10071000BCCFB394B394B9CFB62C782EF1CEB6013A
:1007200080E290E00E94C80333943514C0F3B7CF41
:100730003B2CFBCF512CBDCF872D8678811559F2EC
:1007400080E271FC8BE277FC8DE2B60190E0C1CFD4
:10075000B60180E390E00E94C8036A94BCCF8FEF9B
:100760009FEF52CFFC010590615070400110D8F707
:10077000809590958E0F9F1F0895FC0161507040E9
:1007800001900110D8F7809590958E0F9F1F0895C6
:100790000F931F93CF93DF93182F092FEB018B81BA
:1007A00081FD09C01FEF0FEF812F902FDF91CF91B7
:1007B0001F910F91089582FF14C02E813F818C817B
:1007C0009D81281739073CF4E881F981CF01019612
:1007D0009983888310838E819F8101969F838E8366
:1007E000E3CFE885F985812F0995892BA1F3DACF2D
:1007F000FA01AA27283051F1203181F1E8946F9352
:100800006E7F6E5F7F4F8F4F9F4FAF4FB1E03ED0F7
:10081000B4E03CD0670F781F891F9A1FA11D680F95
:10082000791F8A1F911DA11D6A0F711D811D911DC8
:10083000A11D20D009F468943F912AE0269F11243D
:100840003019305D3193DEF6CF010895462F4770A1
:10085000405D4193B3E00FD0C9F7F6CF462F4F70FC
:10086000405D4A3318F0495D31FD4052419302D05A
:10087000A9F7EACFB4E0A695979587957795679500
:10088000BA95C9F700976105710508959B01AC0100
:100890000A2E06945795479537952795BA95C9F727
:1008A000620F731F841F951FA01D08952F923F9202
:1008B0004F925F926F927F928F929F92AF92BF9270
:1008C000CF92DF92EF92FF920F931F93CF93DF931C
:1008D000CDB7DEB7CA1BDB0B0FB6F894DEBF0FBE79
:1008E000CDBF09942A88398848885F846E847D84C6
:1008F0008C849B84AA84B984C884DF80EE80FD80C8
:100900000C811B81AA81B981CE0FD11D0FB6F8943D
:0E091000DEBF0FBECDBFED010895F894FFCFFE
:10091E004144433D25346400503D25336425250074
:00000001FF
