:100000000C942A000C943F000C943F000C943F0089
:100010000C943F000C943F000C943F000C943F0064
:100020000C943F000C943F000C943F000C943F0054
:100030000C943F000C943F000C943F000C943F0044
:100040000C943F000C943F000C943F000C943F0034
:100050000C943F0011241FBECFE5D8E0DEBFCDBF1A
:1000600010E0A0E6B0E0E6EBF6E002C005900D92ED
:10007000A437B107D9F70E9409030C9459030C94D3
:100080000000843030F5683020F5411519F041301A
:1000900009F1089521E030E0A90102C0440F551F85
:1000A0006A95E2F7BA016095823061F0833071F0B1
:1000B000813021F08AB386238ABB089587B38623D3
:1000C00087BB089584B3862384BB089581B38623B8
:1000D00081BB089521E030E0A90102C0440F551F03
:1000E0006A95E2F7823051F0833059F0813019F08F
:1000F0008AB3842BE1CF87B3842BE2CF84B3842BE4
:10010000E3CF81B3842BE4CF843020F5611519F05F
:10011000613079F00895823041F0833041F08130D0
:1001200011F01ABA089517BA089514BA089511BAB9
:100130000895823051F0833059F0813019F08FEFFB
:100140008ABB08958FEF87BB08958FEF84BB089516
:100150008FEF81BB0895843030F5683020F541156C
:1001600019F0413009F1089521E030E0A90102C001
:10017000440F551F6A95E2F7BA016095823061F02D
:10018000833071F0813021F08BB386238BBB0895CF
:1001900088B3862388BB089585B3862385BB0895DD
:1001A00082B3862382BB089521E030E0A90102C01A
:1001B000440F551F6A95E2F7823051F0833059F0B1
:1001C000813019F08BB3842BE1CF88B3842BE2CF3D
:1001D00085B3842BE3CF82B3842BE4CF843068F4DF
:1001E000823041F0833041F0813011F06BBB0895D3
:1001F00068BB089565BB089562BB08958430A0F480
:10020000683090F421E030E0A90102C0440F551F8E
:100210006A95E2F7BA01823059F0833059F08130A3
:1002200029F089B3982F9623892F089586B3FACFA2
:1002300083B3F8CF80B3F6CF843038F4823049F0FE
:10024000833049F0813019F099B3892F089596B31E
:10025000FCCF93B3FACF90B3F8CF8430F8F4683082
:10026000E8F421E030E0A90102C0440F551F6A956F
:10027000E2F7823061F0833071F0813021F08BB38E
:1002800084278BBB089588B3842788BB089585B3E2
:10029000842785BB089582B3842782BB0895843068
:1002A000A8F4823061F0833071F0813021F08BB39B
:1002B00080958BBB089588B3809588BB089585B3DE
:1002C000809585BB089582B3809582BB0895843064
:1002D00050F4683040F4411521F0413021F40C9481
:1002E000AB0040E0FCCF0895843040F4611521F06C
:1002F000613021F40C94EE0060E0FCCF089584306E
:1003000080F461E0823049F0833049F0813019F0A7
:1003100080E00C94840081E0FCCF82E0FACF83E09F
:10032000F8CF0895E42F843010F5611519F061308D
:1003300081F00895F0E0EE0FFF1FE05AFF4F60815B
:10034000823089F0833089F0813059F080E00C945C
:10035000EE00F0E0EE0FFF1FE05AFF4F6081609566
:10036000EFCF81E0F4CF82E0F2CF83E0F0CF0895C9
:10037000843028F4683018F441E00C94410008956A
:10038000843050F4683040F4411521F0413021F4BC
:100390000C94AB0040E0FCCF0895843020F468302A
:1003A00010F40C942D010895CF93C82F40E065E020
:1003B00081E00E94AB0040E066E081E00E94AB007B
:1003C0006C2F80E00E94EE0041E067E081E00E9437
:1003D000AB008FEC97E00197F1F700C0000040E020
:1003E00067E081E0CF910C94AB0061E080E00E9477
:1003F000840041E065E081E00E94410041E066E068
:1004000081E00E94410041E067E081E00E944100FC
:100410002FEB8AED90E0215080409040E1F700C042
:1004200000008CE30E94D4018FEC97E00197F1F774
:1004300000C000008EE00E94D4018FEC97E001978D
:10044000F1F700C0000081E00E94D4018FEC97E03A
:100450000197F1F700C0000086E00E94D4018FEC04
:1004600097E00197F1F700C0000008950C94D401C3
:100470000F931F93CF938C01C0E0F801EC0FF11D97
:100480008081811104C0CF911F910F9108950E9426
:10049000D401CF5FF2CF0F931F93CF93DF938B01E4
:1004A0000E94D401E801085F1F4F89910E94D40186
:1004B000C017D107D1F7DF91CF911F910F91089508
:1004C0008F929F92AF92BF92CF92DF92EF92FF9264
:1004D0000F931F93CF93DF93CDB7DEB72A970FB655
:1004E000F894DEBF0FBECDBF6B017C0100E08AE057
:1004F000882E912CA12CB12CC114D104E104F1045B
:1005000019F5015010E0FE013196E00FF11F8081D6
:10051000805D0E94D4010F5F1F4F011580E818070E
:1005200091F72A960FB6F894DEBF0FBECDBFDF91CC
:10053000CF911F910F91FF90EF90DF90CF90BF90E0
:10054000AF909F908F900895C701B601A5019401C7
:100550000E943703FE013196E00FF11D60836901AF
:100560007A010F5FC9CF982F862F923048F46031FF
:1005700038F4913019F080580C94D4018054FCCF99
:100580000895CF93DF930F92CDB7DEB76AE00E9454
:100590002B039983482F60E082E00E9492018FE054
:1005A00097E20197F1F700C00000498161E083E024
:1005B0000E9492018FE097E20197F1F700C00000DE
:1005C0000F90DF91CF9108950F931F93CF93DF93F7
:1005D000C82FD62F142F41E0612F8D2F0E94C0010C
:1005E000C11109C040E0612F8D2FDF91CF911F9184
:1005F0000F910C94C00104E18C2F0E94C1028FE185
:100600009EE40197F1F700C000000A95A9F7C150D8
:10061000E7CF60E080E00E94B80161E080E00E94E6
:10062000B80162E080E00E94B80182E00E947F0190
:1006300083E00E947F0140E060E08FE00E94E402DE
:1006400042E060E08AE00E94E40241E060E085E090
:100650000E94E402F0CF992778E0880F991F96173F
:1006600008F0961B881F7A95C9F780950895A1E236
:100670001A2EAA1BBB1BFD010DC0AA1FBB1FEE1F1C
:10068000FF1FA217B307E407F50720F0A21BB30B67
:10069000E40BF50B661F771F881F991F1A9469F7E3
:1006A00060957095809590959B01AC01BD01CF013F
:0606B0000895F894FFCF4D
:1006B600C000F900A400B000990092008200F80082
:0406C6008000900020
:00000001FF
